{
  "contractName": "HelloWorld",
  "abi": [
    {
      "constant": true,
      "inputs": [],
      "name": "hi",
      "outputs": [
        {
          "name": "",
          "type": "bytes32"
        }
      ],
      "payable": false,
      "stateMutability": "pure",
      "type": "function"
    },
    {
      "constant": false,
      "inputs": [],
      "name": "hinofree",
      "outputs": [
        {
          "name": "",
          "type": "bytes32"
        }
      ],
      "payable": false,
      "stateMutability": "nonpayable",
      "type": "function"
    },
    {
      "constant": true,
      "inputs": [],
      "name": "getHellonum",
      "outputs": [
        {
          "name": "",
          "type": "uint256"
        }
      ],
      "payable": false,
      "stateMutability": "view",
      "type": "function"
    },
    {
      "constant": true,
      "inputs": [],
      "name": "getVersion",
      "outputs": [
        {
          "name": "",
          "type": "uint256"
        }
      ],
      "payable": false,
      "stateMutability": "view",
      "type": "function"
    },
    {
      "constant": false,
      "inputs": [
        {
          "name": "_version",
          "type": "uint256"
        }
      ],
      "name": "setVersion",
      "outputs": [
        {
          "name": "success",
          "type": "bool"
        }
      ],
      "payable": false,
      "stateMutability": "nonpayable",
      "type": "function"
    }
  ],
  "bytecode": "0x608060405234801561001057600080fd5b5061023e806100206000396000f3fe608060405234801561001057600080fd5b50600436106100575760003560e01c80630d8e6e2c1461005c578063408def1e1461007a57806381cc6bd6146100c05780639804ad05146100de578063a99dca3f146100fc575b600080fd5b61006461011a565b6040518082815260200191505060405180910390f35b6100a66004803603602081101561009057600080fd5b8101908080359060200190929190505050610124565b604051808215151515815260200191505060405180910390f35b6100c86101ad565b6040518082815260200191505060405180910390f35b6100e66101b6565b6040518082815260200191505060405180910390f35b6101046101ea565b6040518082815260200191505060405180910390f35b6000600154905090565b6000600154821161019d576040517f08c379a000000000000000000000000000000000000000000000000000000000815260040180806020018281038252601e8152602001807f4c61207665727369c3b36e206465626520736572207375706572696f722e000081525060200191505060405180910390fd5b8160018190555060019050919050565b60008054905090565b60006001600054016000819055507f6e6f206672656500000000000000000000000000000000000000000000000000905090565b60007f697320667265650000000000000000000000000000000000000000000000000090509056fea165627a7a7230582086269ed11190a341a87527a91f13e8ba3674136238c54d7181bc02204aec8bd20029",
  "source": "pragma solidity >=0.5.2 <0.6.0;\n\ncontract HelloWorld {\n\n    uint256 private hellonum;\n    uint256 private version;\n    address private constant admin = 0xCbb4946C2195A01Cac065456F6781F9191a43db0;\n    \n    function hi() public pure returns (bytes32) {\n        return 'is free';\n    }\n\n    function hinofree() public returns (bytes32) {\n        hellonum = hellonum + 1;\n        return 'no free';\n    }\n    \n    function getHellonum() public view returns (uint256) {\n        return hellonum;\n    }\n    \n    function getVersion() public view returns (uint256) {\n        return version;\n    }\n    \n    function setVersion(uint256 _version) public returns(bool success) {\n        require(_version > version, \"La versi贸n debe ser superior.\");\n        version = _version;\n        return true;\n    }\n    \n}\n",
  "sourcePath": "/home/iago/git/edge-chain/contracts/HelloWorld.sol",
  "compiler": {
    "name": "solc",
    "version": "0.5.7+commit.6da8b019.Emscripten.clang"
  },
  "schemaVersion": "3.0.9",
  "updatedAt": "2019-05-19T13:10:12.690Z",
  "devdoc": {
    "methods": {}
  },
  "userdoc": {
    "methods": {}
  }
}